:020000040000FA
:10000000831285010730990083169F012C308500EB
:100010008312A001FF30A006200885003E302A2070
:10002000313021205B3015200A28F13EA100211833
:100030001928A1181B28A1181D28FC3E03181D28EB
:100040000800FF3EA2005E30152060301520A20B94
:1000500025280800FF3EA300633021205D301520D5
:10006000633021205F301520A30B302808003B208F
:100070003C203C203B203C203F20000000000800AA
:02400E00D33F9E
:00000001FF
