:020000040000FA
:10000000831285010730990083169F012C308500EB
:100010008312FF3085002D3017200E280030850018
:10002000F9302C20633023202B3017200928F13E93
:10003000A00020181B28A0181D28A0181F28FC3E6F
:1000400003181F280800FF3EA1005E301720603013
:100050001720A10B27280800FF3EA20063302320B1
:100060005D301720633023205F301720A20B322829
:1000700008003D203E203E203D203E204120000043
:040080000000080074
:02400E00D33F9E
:00000001FF
