:020000040000FA
:10000000831285010730990083169F012C308500EB
:100010008312FF308500F93025205E30192010282A
:1000200000308500F7302E20313025205D3019203A
:100030000928F13EA00020181D28A0181F28A0188C
:100040002128FC3E031821280800FF3EA1005E3055
:10005000192060301920A10B29280800FF3EA200BA
:10006000633025205D301920633025205F30192052
:10007000A20B342808003F20402040203F20402091
:0800800043200000000008000D
:02400E00D33F9E
:00000001FF
