:020000040000FA
:020000000528D1
:0800080015288312073099004E
:10001000850183169F01EC30850004309500403047
:1000200081008312133085005E202F207130342030
:10003000123085007B30402047303420023085006C
:100040003D304920183040205F303420003085009A
:100050003E304920313040205D303420122885194F
:10006000080090308B003328F13EA000201838287B
:10007000A0183A28A0183C28FC3E03183C28080089
:10008000FF3EA1005E30342060303420A10B4428B4
:100090000800FF3EA200633040205D303420633012
:1000A00040205F303420A20B4F2808005A205B20EC
:0E00B0005B205A205B205E200000000008004C
:02400E00D33F9E
:00000001FF
