:020000040000FA
:020000000528D1
:0800080016288312073099004D
:10001000850183169F01EC30850004309500403047
:10002000810083122420200885007C204A202C2077
:10003000A001241C2014231CA014221C20160A300A
:100040005F20BF3053201328A501A401A301A20102
:10005000A1011330A0000800A50A0A3025020319E7
:10006000A5010319A40A0A3024020319A4010319E3
:10007000A30A0A3023020319A3010319A20A0A30B2
:1000800022020319A2010319A10A0A30210203194D
:10009000A101080005081B39133A031D080024209C
:1000A00090308B005228F13EA60026185728A6183B
:1000B0005928A6185B28FC3E03185B280800FF3E61
:1000C000A7005E30532060305320A70B6328080040
:1000D000FF3EA80063305F205D30532063305F2017
:1000E0005F305320A80B6E28080079207A207A20F0
:0C00F00079207A207D200000000008002C
:02400E00D33F9E
:00000001FF
