:020000040000FA
:10000000831207309900850183169F01E83085002F
:1000100083122120200885002920A001251C2014FE
:10002000241CA014231C2015221C2016043053204D
:10003000B0304720851D0A28053053207A304720EC
:100040000A28A501A401A301A201A1011730A00063
:100050000800A50A0A3025020319A5010319A40AFC
:100060000A3024020319A4010319A30A0A30230247
:100070000319A3010319A20A0A3022020319A201DB
:100080000319A10A0A3021020319A1010800F13E57
:10009000A60026184B28A6184D28A6184F28FC3E67
:1000A00003184F280800FF3EA7005E30472060304D
:1000B0004720A70B57280800FF3EA80063305320B5
:1000C0005D304720633053205F304720A80B622803
:1000D00008006D206E206E206D206E2071200000C3
:0400E0000000080014
:02400E00D33F9E
:00000001FF
