:020000040000FA
:020000000528D1
:0800080016288312073099004D
:10001000850183169F01EF30850007309500403041
:10002000810083123C202008850072204020A10A14
:10003000643021020319A101A0010A302102031C2E
:1000400020163E3049202520132805080339820751
:100050002C28302834283828173055206430492877
:100060003C305520963049287B3055206430492853
:10007000F830552064304928A1011030A000080054
:1000800005081839103A031D08003C2090308B00F9
:100090004828F13EA20022184D28A2184F28A21885
:1000A0005128FC3E031851280800FF3EA3005E3093
:1000B000492060304920A30B59280800FF3EA400C6
:1000C000633055205D304920633055205F30492032
:1000D000A40B642808006F20702070206F2070200F
:0800E00073200000000008007D
:02400E00D33F9E
:00000001FF
