:020000040000FA
:10000000831207309900850183169F01E83085002F
:1000100083122120200885002B20A001211C201400
:10002000221CA014231C2015241C2016043061203F
:10003000A4305520851D0A28053061207A305520CE
:100040000A28A701A601A501A401A301A201A101FB
:100050001730A0000800A70A0A3027020319A701D9
:100060000319A60A0A3026020319A6010319A50AD4
:100070000A3025020319A5010319A40A0A30240233
:100080000319A4010319A30A0A3023020319A301C7
:100090000319A20A0A3022020319A2010319A10AB4
:1000A0000A3021020319A1010800F13EA800281816
:1000B0005928A8185B28A8185D28FC3E03185D285D
:1000C0000800FF3EA9005E30552060305520A90B86
:1000D00065280800FF3EAA00633061205D3055208E
:1000E000633061205F305520AA0B702808007B2008
:1000F0007C207C207B207C207F20000000000800EA
:02400E00D33F9E
:00000001FF
