:020000040000FA
:020000000528D1
:0800080016288312073099004D
:10001000FF30850083169F0140308100EF3085005E
:10002000073095008312FF3085005A20F9303D20BB
:10003000543031202C201C2800308500F730462019
:1000400031303D20553031202620132805182A282C
:1000500085190800000008008518080090308B0002
:100060003028F13EA00020183528A0183728A01805
:100070003928FC3E031839280800FF3EA1005E30F5
:10008000312060303120A10B41280800FF3EA20042
:1000900063303D205D30312063303D205F303120C2
:1000A000A20B4C28080057205820582057205820D1
:0800B0005B20000000000800C5
:02400E00D33F9E
:00000001FF
